:020000040800F2
:1000000000100020B5020008291300082B13000877
:1000100000000000000000000000000000000000E0
:100020000000000000000000000000002F13000886
:10003000000000000000000031130008F902000871
:10004000F9020008F9020008F9020008F9020008A4
:10005000F9020008F9020008F90200083D0A000848
:10006000F9020008F9020008F9020008F902000884
:10007000BD0E0008F9020008F9020008F9020008A4
:10008000FD020008F902000800000000F902000863
:10009000F9020008F9020008F9020008F902000854
:1000A000F9020008F9020008F9020008C50F00086B
:1000B000F902000800000000F9020008000000003A
:0400C0005FF808F1EC
:1000C40002B4714649084900095C49008E4402BCE7
:1000D4007047C046002934D00123002210B488425E
:1000E4002CD301242407A14204D2814202D2090163
:1000F4001B01F8E7E400A14204D2814202D2490084
:100104005B00F8E7884201D3401A1A434C08A04226
:1001140002D3001B5C0822438C08A04202D3001BBC
:100124009C082243CC08A04202D3001BDC082243D3
:10013400002803D01B0901D00909E3E7101C10BCF7
:100144007047002801D00020C04307B4024802A130
:100154004018029003BDC046D90000000029F0D029
:1001640003B5FFF7B9FF0EBC4243891A1847C046CE
:10017400002941D010B4041C4C40A44601230022A1
:10018400002900D54942002800D5404288422CD39A
:1001940001242407A14204D2814202D209011B0195
:1001A400F8E7E400A14204D2814202D249005B0094
:1001B400F8E7884201D3401A1A434C08A04202D3FC
:1001C400001B5C0822438C08A04202D3001B9C083D
:1001D4002243CC08A04202D3001BDC08224300289F
:1001E40003D01B0901D00909E3E7101C6446002C65
:1001F40000D5404210BC7047002806D003DB002025
:10020400C043400801E08020000607B4024802A170
:100214004018029003BDC046190000000029EBD02D
:1002240003B5FFF7A7FF0EBC4243891A1847C0461F
:100234007047C046F0B5051C0F2A2FD90B1C034389
:10024400051C9C072CD10C1C031C151C2668103D96
:100254001E6066685E60A6689E60E6681034DE60B4
:1002640010330F2DF2D8131C103B1B0901331B0153
:10027400C518C9180F231A40032A0FD90E1C2C1CA9
:10028400131C80CE043B80C4032BFAD8131F9B0895
:1002940001339B0003242240C918ED18002A05D01D
:1002A4000023CC5CEC5401339342FAD1F0BDC04638
:1002B400002103E00A4B5B584350043109480A4BC0
:1002C40042189A42F6D3094A02E00023136004322A
:1002D400074B9A42F9D301F02BF800F03FF870472E
:1002E400B81C000800000020E0000020E00000200E
:1002F4004C030020FEE7000000B5064B1A8AD10724
:1003040006D5022252421A82034B1A8801321A80FD
:1003140000BDC046000400401A010020034A044BFB
:1003240010885B6A0004C0187047C0461A01002098
:100334000004004008B5FFF7F1FFFA218900FFF738
:10034400C9FE08BD38B5041CFFF7E8FF051CFFF71C
:10035400E5FF401BA042FAD338BD0000F0B589B0D8
:1003640000F0E6FFC020C002012101F033FACA48C0
:10037400012101F04BFA0121C84801F039FA00F0DB
:100384001DFF00F05DFDE120400200F0ABFD00F038
:100394002BFB00F005FD68460123002403770323AB
:1003A40043778477C477802690203602C00506A957
:1003B4000425069601F0A8F8B94806A9069501F0A7
:1003C400A3F8B748291C221C01F0D7F89020C005D7
:1003D400311C221C01F0D1F8FFF7A0FFB14D0490AD
:1003E4002B88B14C002B04D02378002B01D100F0D2
:1003F4000DFC2378002B00D0BDE12C88002C00D00C
:10040400B9E100F003FC00F059FBA84BA84D1B78A0
:10041400A84F0193A84B1B880293E31902215E5E47
:100424002B78F217B01850404000FA215843890045
:10043400FFF750FE6423A149019A181A6052002A5A
:1004440006D10298191C7043FFF792FE9C4BE052B0
:1004540002340135062CE0D1964B00251B882C1C58
:1004640005932E1C964B954AE75E964BA05E1B5F48
:10047400642158434942FFF77BFE934B38180090A0
:10048400009FF05C64217843FFF772FE8F4B01906C
:10049400E9588F4B7918E25E5342994203DB0B1CF7
:1004A400914200DD131C0099AF20CA1789185140EE
:1004B4000291029A00278000C90F904279416F4649
:1004C4001420C25F49420B404F2A00DC00237F4ABC
:1004D4008049AB50804AB05C5843FFF749FE7F4FD8
:1004E4000390EB59009F7E48FB1A9FB2235E3AB2F9
:1004F400D3187C4A9621B05C49005843FFF738FE74
:100504007749F2B26752754F0099774BE951019FD1
:10051400022A0ED103997A181018744A904206DB05
:10052400FA225200904200DD101C80B204E07048B0
:1005340002E0C019039FC019013618530435023470
:10054400032E8FD15B4B6B4C08201A5E6A4B962AA4
:100554000DDD2278FA2A0AD100229A56002A15D1F2
:1005640001221A704E48042101F007F80EE000221F
:100574009A56012A05D100221A704948042100F034
:10058400FCFF2378F92B01D8013323705A4B4949D6
:100594001B785BB2002B04D000228B5E4F2B02DC55
:1005A40000231A1C02E0FA22322392000988002454
:1005B4000DB20294A54207DBFA200E1C800085428E
:1005C40000DD061C37B202974748061C8446002407
:1005D400345F071C66460220385E0427F65F029FDC
:1005E40001963E19019F361AF61B9E4201DA1E1C23
:1005F40012E00026B54208DB0FB2BC46FA270E1CF7
:10060400BF00BC4500DD3E1C36B23619019F361AC8
:10061400F61B964200DD161C384F7E630026B54259
:1006240008DB0FB2BC46FA270E1CBF00BC4500DD38
:100634003E1C36B2361B019F361AF6199E4201DA69
:100644001E1C12E00026B54208DB0FB2BC46FA2796
:100654000E1CBF00BC4500DD3E1C36B2361B019F9C
:10066400361AF619964200DD161C244F3E64002605
:10067400B54208DB0FB2BC46FA270E1CBF00BC45CE
:1006840000DD3E1C36B2361B019F3618F61B9E4217
:1006940036DA1E1C47E0C04603002000014A02006F
:1006A40000040048CE00002078000020F200002062
:1006B40079000020AA00002020000020E000002093
:1006C4001C010020340100208C00002004010020C3
:1006D40022000020B80B000089000020F400002054
:1006E400EC0000207C000020E60000200CFEFFFF50
:1006F4000CFE00001901002000010020002C014024
:100704000026B54208DB0FB2BC46FA270E1CBF0018
:10071400BC4500DD3E1C36B2361B019F3618F61B65
:10072400964200DD161C934F7E630026B54208DB1B
:100734000FB2BC46FA270E1CBF00BC4500DD3E1CB0
:1007440036B23619019F3618F6199E4210DB002383
:100754009D4206DBFA230DB29B009D4200DD191C6D
:100764000BB21B191B1801981B18934200DD131CB4
:100774008022D2051364804800F072FEFFF7DAFD90
:100784007E4C2368C01A642854D9FFF7D3FD7C4BF0
:100794000F221A707B4B20601A7851B2002901DDB8
:1007A400013A1A70784C2278002A0DD00123902047
:1007B40080211A40C0050902002A00D01A1C00F04A
:1007C400DCFE2378013B2370704AAF211388490073
:1007D4008B421DD16E4B01241D786E480135EDB25C
:1007E4001D700421254008D0002200F0C6FE902090
:1007F4008021C0050902221C07E0221C00F0BDFE76
:1008040090208021C00509022A1C00F0B6FE11E0E8
:1008140061490024085F8E214900884201DC0133CC
:1008240002E0002B06D0013B138003E000F020FC23
:10083400257001E0534C142500F00EFC0028F5D17E
:100844008EE02878012808D84E4B1B785BB2002B29
:1008540000DC87E0002800D184E00138C0B22870B1
:100864000E287FD84D4CFFF72BFC6A6E6058504A17
:10087400443E362E261E160E080049480A2100F072
:100884000BFC484B2CE048480A2100F005FC454B82
:100894000221585E50E045480A2100F0FDFB414B1F
:1008A4000422985E48E042480A2100F0F5FB3D4BE3
:1008B4000627D85F40E03F480A2100F0EDFB394BA2
:1008C4000821585E38E03C480A2100F0E5FB354B2E
:1008D4000A22985E30E039480A2100F0DDFB2E4BF5
:1008E4000027D85F28E036480A2100F0D5FB354BB5
:1008F40010E035480A2100F0CFFB324B12E03348B8
:100904000A2100F0C9FB2F4B14E031480A2100F002
:10091400C3FB304B0021585E0EE02F480A2100F043
:10092400BBFB2C4B0222985E06E02C480A2100F007
:10093400B3FB284B0427D85F00F0C6FB0BE0284824
:100944000A2100F0A9FB201C022100F0A5FB201CB9
:10095400022100F0A1FB201C022100F09DFB01E01C
:10096400204E074DFFF7DAFC049C001BB04200D96F
:1009740032E566E7004401400024014014010020F0
:100984001001002011010020780000202201002025
:100994001801002000040048120100200A00002071
:1009A40000000020AA0000206E0000200C0000209F
:1009B40016000020280000208F000020990000204D
:1009C4003C000020340100205A0000206400002074
:1009D400320000203E01002050000020460000208C
:1009E4007F000020CF07000070B586B001A9032363
:1009F400002501244B71802602239020F6010D71FD
:100A0400CB718C71C005019600F07EFD281C0E216F
:100A140000F0CCFD03A8082305714371847103968B
:100A240000F03EFD05A8072303704470847001F0B4
:100A340009F906B070BD000070B5174B174A596A22
:100A440080235069DB01184225D053619022D205DE
:100A5400128A1A421FD0124B89B21A881C1C8A1A95
:100A6400104B92B29A4203D90F4B00221A7011E034
:100A74000E4BD0180E4B80B298420BD80A4803781C
:100A8400052B07D80B4D0126EE540B4D5E000133A8
:100A940072530370218070BD0004004000040140C3
:100AA4002401002088130000260100200BFEFFFF14
:100AB400CE070000A3000020B6000020F0B51D4BB7
:100AC40000221D4F111C9C466446085D3B5C002BB4
:100AD4002BD01A4D1A4E43005B5B945BE41A012C35
:100AE40023D0CCB2174E184D002C0AD1B34216DDD8
:100AF400FA24E400A34201DC144E09E0FA24A40021
:100B04000DE0B34207DDFA24E400A34205DC104EF5
:100B14009C19A4B203E00F4C01E0FA246400AC5227
:100B2400074C1353044B00241C5401310232062990
:100B3400CAD1F0BDB01C0008A3000020B6000020FC
:100B4400C2000020E7030000AA00002018FCFFFFF9
:100B540024FAFFFF0CFE000073B5051C0E1C802157
:100B64002748090200F08BFD0128F8D080239B015F
:100B7400009380232248D02101225B0400F068FD09
:100B8400204C03E0013CA4B2002C1ED01C480221DE
:100B940000F075FD0028F5D01948291C00F06AFD05
:100BA4001748802100F06BFD0028F9D00023009342
:100BB40080231348D02101229B0400F049FD114CED
:100BC40008E0013CA4B2002C04D10F4B1A88013276
:100BD4001A8013E00A48022100F051FD0028F0D0E9
:100BE4000748311C00F046FD0548202100F047FD70
:100BF4000028F9D00248202100F046FD73BDC0460C
:100C04000054004051C300003C01002070B586B080
:100C140080215D48090200F032FD0128F8D08023CC
:100C24009B0100935848D0210122002300F010FDBD
:100C34005548022100F023FD0028F9D052483B21F9
:100C440000F018FD5048402100F019FD0028F9D0AB
:100C540090239B01009380239B044B48D0210E22B8
:100C640000F0F6FC494D00230DE04748042100F054
:100C740006FD0028F9D044482C7800F0FDFC02ABB6
:100C840018552B7801332B702B780D2BEDD93E485A
:100C9400202100F0F4FC0028F9D03B48202100F08A
:100CA400F3FC02ABD9783A4A091149421180187809
:100CB40059780002084300B2C117090F0918091135
:100CC4004942518059790911494291801A7A587AD6
:100CD40012023049024352420A809A7AD87A1202A6
:100CE400024352424A80187B5A7B0002031C13437E
:100CF4005B428B80284B1B88002B36D02748002270
:100D0400940055006D5E265801327519D2B22550F3
:100D1400022AF5D91D4990200A7080210122C005BC
:100D24000902134200D0002200F027FC1A4B1B8852
:100D3400012B15D1194E0024A500FA21A859490008
:100D4400FFF716FA0134E4B2A851022CF4D90F4B80
:100D5400902080211C70C0050902012200F00DFCC6
:100D64000D4B1A88013A1A800CE00C485A009C007A
:100D7400555A245801332C1BDBB25452022BF5D99B
:100D8400024A137006B070BD005400403A010020BE
:100D94003E01002034010020CE0000202801002064
:100DA40070B58AB0224EC023002408A901250893F7
:100DB40002230B718D71CC71301C00F0A5FB301C2B
:100DC4002A1C062100F0E0FB2A1C301C072100F03D
:100DD400DBFB184E184B301C019301A9AB23059380
:100DE4000294039404940694079400F0F3FB291CE2
:100DF400124D301C00F020FC281CFFF7A3FA8021C0
:100E04006B20FFF7A9FE281CFFF79CFA6B20032137
:100E1400FFF7A2FE211C1A20FFF79EFE1B201821BB
:100E2400FFF79AFE1C201021FFF796FE0AB070BD52
:100E340000040048005400400A0210008813000017
:100E440030B58BB00024032307A990200B7104252F
:100E5400CC71C005079500F057FB01A90C718C609B
:100E6400CC600C614C611248019400F0BDFA10484A
:100E7400291C072200F0D7FA291C01220C4800F093
:100E8400F4FA012409A80C2303704570847000F05F
:100E9400D9FE074800F0CCFA0548211C00F0BAFA44
:100EA4000348044900F0ECFA0028F9D00BB030BD37
:100EB400002401400100000108B5074B0422196811
:100EC400114207D01A60186C0449C001FFF702F9F7
:100ED400034B188008BDC04600240140BA0300003B
:100EE4001201002070B59025ED058AB0061C092179
:100EF400281C012200F048FB0122281C0A2100F0D2
:100F040043FBC023DB0007A90793022300240B71D2
:100F140003234B718C71CC71281C00F0F5FA0294F8
:100F2400039404940694104C01A90C23201C0196EC
:100F3400059300F0E1FD09A81B2301250370052397
:100F44004370857000F07EFE2A1C201C074900F0C7
:100F540040FE2A1C201C064900F03BFE291C201CD4
:100F640000F024FE0AB070BD003801400501050000
:100F74000601060010B50C4B1A78002A13D10B4A4F
:100F84000B4C1178227891420DD001221A70094835
:100F9400094900F01EFE2378084A0648D15C013353
:100FA400237000F00EFE10BD450100204602002013
:100FB40044010020003801400601060049020020D7
:100FC40038B51C481C4900F01BFE00280CD01948F9
:100FD400194900F032FE194D16482C7800F0F5FD41
:100FE400174B185501342C701248164900F008FEAE
:100FF40000281DD00F48134900F01FFE1249134A60
:1010040008781378124998420AD00878002807D043
:1010140010490848C95C0133137000F0D2FD07E0A1
:1010240000220A700348074900F0D3FDFFF7A2FF2E
:1010340038BDC046003801400501050047020020C4
:10104400460100200601060046020020440100205B
:101054004501002049020020034B1878034B1B78FC
:10106400C01AC0B27047C0464702002048020020A0
:1010740000B5064A0649137809780020994203D03E
:101084000449C85C0133137000BDC0464802002007
:101094004702002046010020F8B5094A00231678CB
:1010A400141C084D03E0C75C0133AF54DBB29A193A
:1010B400D2B28B42F7DB2270FFF75CFFF8BDC0466B
:1010C400460200204902002030B589B084B22025B0
:1010D400002802DA6442A4B22D250A2201A832496A
:1010E400FFF7A8F8002304AA938004932F4A03E08F
:1010F4002F480B1C2418A4B2591CC9B29442F7D827
:1011040004AA137053782B4A03E02B4BE418A4B2BF
:101114000B1C591CC9B29442F7D804AA5370937893
:1011240002E0643CA4B2131C5A1CD2B2632CF8D85B
:1011340004AA9370D37802E00A3CA4B2131C5A1C8C
:10114400D2B2092CF8D8184904AAD37014710A3100
:10115400062206A8FFF76EF800210B1C01AA5842CC
:101164005841CCB2052C01D1002814D104AC0C5D3B
:10117400145D302C04D0002802D006ABCD5408E016
:10118400002B09D008A84318113B1B78D05C06AB90
:10119400C854012300E0002301310629DFD106A849
:1011A400FFF77AFF09B030BDA01C00080F2700002C
:1011B400F0D8FFFFE703000018FCFFFFF0B5534F22
:1011C4008DB0381C06AC00F04BFB2F232380504B12
:1011D40000260793381C0023211C2681A3726680F5
:1011E40000F0B2FB381C012100F0F0FB0BA8102327
:1011F4000125037000234370857000F023FD2A1C31
:10120400291C381C00F06EFC424B09AF09930223E1
:101214003B7103237B7190200023BB71FB71391C4C
:10122400C00500F071F98023AB40391C3A4809939A
:1012340000F06AF99020C0050321022200F0A4F90D
:101244009020C0050821022200F09EF99020C005DC
:101254000B21022200F098F9022208212E4800F006
:1012640093F92E4FFA239B00381C63600023A3726A
:1012740025802681668000F0F3FA381C211C00F0DA
:1012840063FB8020C00500F0EBFA8020211CC00520
:1012940000F05AFB224800F0E3FA211C204800F039
:1012A40053FB01AC7023381C2380211C0223A3812F
:1012B40003966580268200F0A3FB381C211C00F0F5
:1012C400DFFB211C164800F09BFB8020211CC0057D
:1012D40000F0D6FB381C291C00F078FB381C291CB4
:1012E40000F07FFB8020291CC00500F07AFB8020E1
:1012F400291CC00500F06AFB291C094800F071FB99
:10130400291C074800F062FB0DB0F0BD000400404A
:10131400FFFF00000809000000040048002C014001
:1013240000440140704700B5FEE770477047000075
:1013340000B5254B012219681143196058682349E7
:101344000140596018682249014019601868214910
:10135400014019605868204901405960D96A0F203A
:101364008143D962186B1D4901401963596B91433C
:10137400002259639A601A4A112111605A685A600E
:101384005A685A605968174A0A405A605968A02234
:1013940092030A435A601968802252040A43802146
:1013A4001A6089041868084A0842FBD0516803206F
:1013B4008143516051680220014351600C225968F5
:1013C40011400829FBD100BD001002400CB8FFF801
:1013D400FFFFF6FEFFFFFBFFFFFFC0FFACFEFFFFBA
:1013E40000200240FF7FC0FF10B58A680B68C46804
:1013F4001343CA6813430A6913434A691343044AEB
:10140400224013430A7952031343C36010BDC046FC
:1014140003D2FFFF00B583680122002900D1022214
:101424001343836000BD836A19438162426170473C
:1014340010B58168802212060A438260031C0022D0
:10144400064C013210199968002801D00029F7DBF5
:101454009A680020824200DB186C10BD0010FFFF68
:101464008368042213438360704700B54368002AED
:1014740002D01943416001E08B43436000BD00008A
:1014840000B5CB0103D58268044B134000E0036828
:101494000B40181C431E984100BDC046FFFFFFFED1
:1014A40010B583790268002B23D0164BD1431C68F6
:1014B4000C401C605C68214059600179C9180C68B3
:1014C40022430A6002689C68D1430C409C60DC683B
:1014D4002140D9604179102906D199681143996056
:1014E400D9680A43DA600BE006480B1819680A4306
:1014F40005E0044903795B18196891430A1C1A60D2
:1015040010BDC04600040140F7B50B6801930023E9
:101514001A1C0125019E95402E40AE4228D10D791A
:101524006F1E012F12D8846803279F40BC43846038
:101534004F7984689F403C4384608788B7438780A1
:101544008E79878896403E43B6B286800326076824
:101554009E40F6433740076007689D403D43056061
:10156400C5682E40C660CD79C6689D403543C560C8
:1015740001320233102ACCD1F7BD00B5002A01D0C4
:10158400816100E0018500BD30B507230B40C90827
:10159400083189000C589B000F259D40AC430C502A
:1015A4000C589A40131C23430B5030BD30B5032212
:1015B4000A408908064B02318900CC5892000F2555
:1015C4009540AC43CC50CC5890402043C85030BDDB
:1015D4000000014010B5026801239A4302600468C8
:1015E400124A22408C68240222434C68224302603F
:1015F4000C680F4A2240026102681343036000230F
:1016040083600A69C3608B691343836082688023A3
:101614001B02134383600268CB6813430360426870
:10162400044B13404A691343436010BDFFE0CF00ED
:10163400FFFFFFF0FF7FFF0700B5012302680029C9
:1016440001D0134301E09A43131C036000BD000062
:1016540010B58905890D44680B4305490C402343A3
:10166400029C234314041A1C2243426010BDC0464A
:10167400009800FC81627047406AC0B2704780697C
:101684000840431E98417047C161704770B54A4D88
:10169400041C68680C231840FEF712FD202020204B
:1016A40020202020072020201E006E68C023B602C0
:1016B4006A68360F5B0202361A4202D13F4B5E4320
:1016C40008E03D4B3E48D96A0F2319400131FEF72B
:1016D40001FD4643266004E03A4B00E0384B2360AA
:1016E40000266B68384A1B061B0FD35C2168D9405F
:1016F40061600B1C69684905490F525CD340A360C3
:101704002A6BD10501D4314B06E02B4A52685104AF
:1017140001D45B0800E09B08E3602B6B5A0601D4FC
:101724002B4B01E080231B0223612B6BD90601D4D0
:10173400234B00E023686361296B03231E4A19428B
:1017440001D1A36811E0116B1940012901D123686B
:101754000BE0116B1940022902D180231B0204E023
:10176400126B1340032B01D1154BA361C023296BCA
:101774009B02114A194201D1A36815E0106B802124
:1017840018404902884201D123680DE0106B802182
:1017940018408902884202D180231B0204E0126BA4
:1017A4001A409A4201D1064BE3612B6B1A0600D40E
:1017B400044E266270BDC0460010024000093D0080
:1017C40000127A00006CDC02D0000020809FD5005B
:1017D4001280000000B5054B5A69002902D010435D
:1017E400586101E082435A6100BDC04600100240C6
:1017F40000B5054B9A69002902D01043986101E0B5
:1018040082439A6100BDC0460010024000B5054BFA
:10181400DA69002902D01043D86101E08243DA6119
:1018240000BDC0460010024000B5054BDA6800292F
:1018340002D01043D86001E08243DA6000BDC046A4
:101844000010024000B5054B1A69002902D010436C
:10185400186101E082431A6100BDC04600100240D5
:1018640008B5314B984207D1802000010121FFF7D0
:10187400DBFF8020000152E08023DB05984205D184
:101884000120011CFFF7DEFF012024E0274B9842D2
:1018940005D102200121FFF7D5FF02201BE0244BD4
:1018A400984205D110200121FFF7CCFF102012E04F
:1018B400204B984205D120200121FFF7C3FF2020AF
:1018C40009E01D4B98420AD1802040000121FFF716
:1018D400B9FF802040000021FFF7B4FF22E0174B3E
:1018E400984207D1802040020121FFF79DFF80200C
:1018F400400214E0124B984207D18020800201215B
:10190400FFF792FF8020800209E00E4B984209D134
:101914008020C0020121FFF787FF8020C002002140
:10192400FFF782FF08BDC046002C014000040040C0
:10193400001000400014004000200040004001401E
:10194400004401400048014030B5194CC02502193B
:101954002D065442624144190388002C04D0002A05
:1019640002D1144CA04203D17024A3434C882343D6
:10197400114CA04203D0114D0C892B40234303800A
:101984004B680F4CC3620B8803850319002B09D0E5
:10199400002A07D10B4D4319002B03D00A4A8318A0
:1019A400002B01D18B7A03860123838230BDC0468C
:1019B40000D4FEBF0004004000100040FFFCFFFF05
:1019C40000C0FEBF00B8FEBF00BCFEBF00B50123CF
:1019D4000288002901D0134301E09A43131C0380B9
:1019E40000BD00B50630002904D0C28F80231B023D
:1019F400134302E0C38F5B045B0CC38700BD00008C
:101A040070B5038C012293430384058C8288048B74
:101A140073239C430B884E881C4302239D438B896C
:101A24003343124E2B438519002D0BD0104E8519CC
:101A3400002D07D00F4E8519002D03D00E4E8519A9
:101A4400002D0DD10825AB43CD894E8A2B430425A7
:101A5400AB438D882B43094D2A400D8A35432A43D5
:101A640082808A6804834263038470BD00C0FEBF21
:101A740000D4FEBF00B8FEBF00BCFEBFFFFCFFFFEA
:101A840030B5028C124B13400384058C114A8388B1
:101A9400848B14400A88120214430F4AA4B22A40C9
:101AA4008D892D032A434D8892B22D032A430B4D71
:101AB40092B2A84205D10A4D2B400D8AAD012B43A9
:101AC4009BB283808B6884830364028430BDC046E8
:101AD400FFEFFFFFFF8CFFFFFFDFFFFF002C014044
:101AE400FFBFFFFF00B58389002A02D0194381811B
:101AF40001E08B43838100BDF0B503680122934369
:101B040003604268234B0D1C13408A68C968134361
:101B140043600268204B8DB01A406B68061C0B436F
:101B240029690B431343036082681C4B13406A69A1
:101B34001343836003A8FFF7A9FD194B9E4201D10B
:101B4400099C05E0174B9E4201D10A9C00E0059CCC
:101B54002A68336801921A0400D564000199201C94
:101B6400FEF7B8FA0199071C201CFEF7F7FA2A6859
:101B74000023520891425B41FF1833681A0404D5CC
:101B8400094A3B075B0F17401F43BFB20DB0B78133
:101B9400F0BDC046FFCFFFFFF3E9FFFFFFFCFFFFEF
:101BA4000038014000440040F0FF000000B501236C
:101BB4000268002901D0134301E09A43131C036017
:101BC40000BDC905C90D01857047808CC005C00DD5
:101BD400704710B58BB20124C9B28C401B0A211C7A
:101BE400022B01D1043002E0032B00D1083003683A
:101BF400002A02D01943016001E08B43036010BD49
:101C040010B5CBB201248AB29C40120A231C012ACB
:101C140001D1026804E0022A01D1426800E082682E
:101C24001340090C01228A40C069111C08405A1E45
:101C34009341411E8841184010BD090C01238B407B
:101C44000362704770B582780378002A19D00324A0
:101C54009908104A2340C031A3408900FF248D58BD
:101C6400261C9E40B5434678B60134409C402B1C4C
:101C740023438B5001781F230B40012199401160AD
:101C840006E01F22134001229A40131C024AD36724
:101C940070BDC04600E100E004E100E030313233C1
:101CA4003435363738392020202020300001020313
:041CB4000405000023
:101CB8005468726F74746C6520200A0D50697463DF
:101CC80068202020202059617720202020202020F3
:101CD800CC01504650468813417578312020202089
:101CE8002020414343205820202020204779726F2C
:101CF800205820202020414343205A202020202003
:101D0800414343205920202020204779726F2059D1
:101D1800202020204779726F205A20202020526FDF
:101D28006C6C2020202020201458585878780048BF
:101D38006F646F7221202020204141552D2D46418E
:101D48007578322020202020204C69506F20566F53
:101D58006C742E010101010101000000F401F4017D
:101D6800F401F401F401DC05DC05DC05DC05DC0527
:101D7800DC05DC05DC05DC05DC05DC05DC05F4013F
:101D88000000000001020304010203040607080919
:04000005080002B538
:00000001FF
